:100000000000022019630000416300002D2500005C
:1000100045630000476300004963000000000000E2
:100020000000000000000000000000004B63000022
:100030004D630000000000004F63000051630000AA
:10004000A13F000053630000AD440000CD4D00000F
:10005000DD4D0000536300001143000059490000CA
:10006000C94B0000D94B00005363000053630000EC
:10007000811C0000536300005363000053630000C1
:1000800053630000612100005363000053630000CC
:10009000FD21000053630000536300005363000020
:1000A0005363000053630000536300005363000078
:1000B0002149000053630000000000000000000020
:1000C000536300003149000053630000194B0000E6
:1000D0005363000053630000536300005363000048
:1000E000055C0000000000000000000000000000AF
:1000F0000000000053630000000000005363000094
:1001000000000000000000000000000000000000EF
:1001100000000000000000000000000000000000DF
:1001200000000000000000000000000000000000CF
:1001300000000000000000000000000000000000BF
:1001400000000000000000000000000000000000AF
:10015000000000000000000000000000000000009F
:10016000000000000000000000000000000000008F
:10017000000000000000000000000000000000007F
:10018000000000000000000000000000000000006F
:10019000000000000000000000000000000000005F
:1001A000000000000000000000000000000000004F
:1001B000000000000000000000000000000000003F
:1001C000000000000000000000000000000000002F
:1001D000000000000000000000000000000000001F
:1001E000000000000000000000000000000000000F
:1001F00000000000000000000000000000000000FF
:100200000348044B834202D0034B03B118477047A5
:100210001C0700201C070020000000000548064BBA
:100220001B1AD90F01EBA301491002D0034B03B1F4
:10023000184770471C0700201C0700200000000022
:1002400010B5064C237843B9FFF7DAFF044B13B11E
:100250000448AFF300800123237010BD1C07002069
:1002600000000000C80F010008B5044B1BB1044991
:100270000448AFF30080BDE80840CFE7000000006D
:1002800020070020C80F0100A3F5803A704700BF87
:10029000154B002B08BF114B9D46FFF7F5FF0021C2
:1002A0008B460F461148124A121A06F0D5F80C4B2D
:1002B000002B00D098470B4B002B00D09847002014
:1002C000002104000D000B4806F0BAFB06F070FA9E
:1002D0002000290001F060FA06F0A4FB00000800ED
:1002E0000000000000000000000002201C070020A9
:1002F0001C150020D16B000010B50368292B0446A3
:1003000004D9074940F2CD1002F02AF923681F2BC7
:1003100083BF03F01F03236002484FF0A04010BDCD
:10032000F8E100000003005007B5019001A8FFF7B5
:10033000E3FF019B03F5E073032240F8232003B0A1
:100340005DF804FB07B5019001A8FFF7D5FF019AFE
:1003500001239340C0F80C3503B05DF804FB07B5EA
:10036000019001A8FFF7C8FF019A01239340C0F84C
:10037000083503B05DF804FB38B5054D044645F07B
:1003800001054FF47A40A847013CFAD138BD00BFBF
:100390001005010038B50D46044600F039FF284627
:1003A00000F04CFF00F0A0F9052800D138BD204630
:1003B000FFF7D5FF1720FFF7D2FFC820FFF7DCFFBC
:1003C0002046FFF7BFFF1720FFF7BCFFC820FFF74D
:1003D000D3FFE7E708B50B20FFF7A6FF0A20FFF7DA
:1003E000A3FF0920FFF7A0FF1E20FFF79DFF1720A6
:1003F000FFF79AFF0B20FFF7A5FF0A20FFF7A2FFE8
:100400000920FFF79FFF1E20FFF79CFF1720FFF733
:1004100099FF012008BD000000B50F4B0F4A53F8AB
:100420002030A1B08021684606F0E0F800F0F0FE30
:10043000684600F003FF1E20FFF791FF1720FFF72B
:100440008EFF4FF4FA70FFF797FF1720FFF77AFF40
:1004500021B05DF804FB00BF000000203BE200007B
:100460001E20FFF76FBF000000B5074B074953F888
:100470002020A1B0684606F007FB69461E20FFF762
:1004800089FF21B05DF804FB0000002059E2000064
:1004900010B5A4B002AB83E803000B4A9DF80840F6
:1004A0009DF80B30009352F824209DF80A3007493C
:1004B00004A806F0E9FA002C04A914BF09200A20B8
:1004C000FFF768FF24B010BD0000002077E20000B5
:1004D00010B510EE900AA4B010EE104A0DF050FBCB
:1004E000CDE9020120460DF04BFB064ACDE90001A3
:1004F000802104A806F07AF804A90B20FFF74AFF30
:1005000024B010BDB4E2000000B5074B074953F812
:100510002020A1B0684606F0B7FA69460B20FFF725
:1005200039FF21B05DF804FB00000020D9E2000093
:10053000292810B504460DD9094940F2CD1002F022
:100540000FF8084B04F01F04D3F81005E04000F04A
:10055000010010BD1F28F4D84FF0A043F4E700BFFE
:10056000F8E100000003005013B500230446019396
:1005700044F61F62019B93420CD92046FFF7D8FF37
:1005800030B91C2C18D009D8042C0ED00E2C16D043
:1005900002B010BD019B01330193EBE71F2C08D083
:1005A000252CF5D1074B052201E0064B01221A70DC
:1005B000EEE7044B0222FAE7024B0322F7E7014B76
:1005C0000422F4E7380700201F2886BF00F01F0030
:1005D000044B4FF0A04300F5E0700C2243F82020BC
:1005E000704700BF0003005008B50420FFF7ECFF80
:1005F0001F20FFF7E9FF1C20FFF7E6FF0E20FFF7A3
:10060000E3FFBDE808402520FFF7DEBF07B503F094
:100610008DFD30B903F052FD30B12D4A3C2101F07F
:1006200089FD2C4806F062FA2B4B1A889B78ADF8AE
:1006300004208DF80630294A032301A904208DF8EF
:10064000053003F07DFD10B1224806F04FFA01217C
:10065000042003F0FFFD214A01A91F2003F070FDD3
:1006600010B11C4806F042FA01211F2003F0F2FDF0
:100670001A4A01A91C2003F063FD10B1154806F0C9
:1006800035FA01211C2003F0E5FD144A01A90E20D2
:1006900003F056FD10B10F4806F028FA01210E2094
:1006A00003F0D8FD0D4A01A9252003F049FD10B142
:1006B000084806F01BFA0121252003F0CBFD084B6A
:1006C000084800221A7006F011FA03B05DF804FB26
:1006D000EEE20000F7E200001605010069050000E7
:1006E0003807002016E30000024B002218781A7029
:1006F000704700BF3807002038B5054D044645F067
:1007000001054FF47A40A847013CFAD138BD00BF3B
:10071000200501002DE9F04FA34BDFF8ECA2A34A1E
:10072000A34EA44FDFF8E4B2DFF8E492DFF8E482EE
:1007300000241C7003238AF800304FF46173138087
:100740009D4A3470ABB001233C708BF8004089F8AF
:10075000004088F8004013700AAD08A801F09CF929
:1007600038B108A800F070FB08A800F0F5FA00F016
:10077000CFFB8E4B1A883C20B2FBF0F100FB11221C
:10078000CBB292B2082C00F29D80DFE804F005277E
:100790002B38656A787B7F00834B1A78874B53F838
:1007A0002230874A8021284605F020FF00F030FDE6
:1007B000284600F043FDFFF797FF002800F0F8817E
:1007C000082C00F2F581DFE814F08200A600BA00E0
:1007D00042015E0174018D01A601BE013378794AA0
:1007E0004133DFE73B780722B3FBF2F2C2EBC202F0
:1007F0009B1ADBB2744A52F82330744AD2E79BF852
:1008000000309BB93A7833780721B2FBF1F1C1EBA4
:10081000C101521AD2B26C4951F8222000926C4A9E
:1008200041338021284605F0E1FEBFE799F800300A
:10083000684A6949D35C06225343CA18CB5C1179D4
:100840000291D1780191927800924133634A8021DC
:10085000284605F0CBFEA9E798F80030604A4133FE
:10086000A0E79AF800300722B3FBF2F2C2EBC20213
:100870009B1ADBB2544A52F823305A4A92E700924C
:10088000594ACEE74C4B594A1B788BE74A4998F8AE
:10089000000009780193CDE902219AF800204A4B23
:1008A0000721B2FBF1F1C1EBC101521AD2B2802192
:1008B00053F8223000934E4A00F14103284605F0D8
:1008C00095FE73E74B49284606F024F96EE70328A6
:1008D00008D1354A1378013303F001031370002364
:1008E0001C460EE0042805D1434806F0FFF82BB063
:1008F000BDE8F08F0528F2D12B4B1B7893B900236C
:10090000042432200593FFF7F7FE059B002B3FF4EC
:1009100024AF3A48E9E7032807D13378013303F0DD
:100920000103337000230124EBE7042802D10023E4
:100930003370D4E70528F5D100230224E1E703282A
:1009400009D13B7807220133B3FBF2F2C2EBC202BA
:100950009B1A3B70F0E704284FF0000301D13B7075
:10096000E0E70528E8D1264A97F800E012780792D8
:100970001949327806928BF800301A4605939DF893
:1009800014400798A04247D80BB18BF80020002AEA
:1009900057D100F03DFC1B4800F050FC4FF4FA60CA
:1009A000FFF7AAFEC8E700BF390700200A000020B1
:1009B000700700206F0700200800002028050100B4
:1009C0003FE3000072E3000030050100ABE30000EC
:1009D000E3E300003D070020920700200AE4000046
:1009E00050E4000086E40000BBE40000F8E40000EE
:1009F00030E5000083E5000091E5000076E60000A8
:100A0000BE080020ABE500000C0000203C070020E1
:100A10003B0700203A07002091F800C00698844563
:100A20000AD191F801C0F44506D1DFF888C1531C02
:100A30000CF80240DAB20123059801300590063126
:100A40009DE7002389F800300023032459E7032899
:100A500009D199F800309BF800200133B3FBF2F183
:100A600002FB1133EEE704283FF466AF0528EBD113
:100A700099F800304F4AD05C00F034FB08B14E4882
:100A800033E74E4831E7032807D198F800300133A7
:100A900003F0010388F8003031E7042803D1002374
:100AA00088F800301BE705287FF429AF00230524D0
:100AB00027E703280BD19AF8003007220133B3FB54
:100AC000F2F2C2EBC2029B1A8AF80030EEE7042869
:100AD00003D13B4B03221A7011E70528E6D100230E
:100AE00006240EE703280AD1364A13884FF4B4616E
:100AF0000133B3FBF1F001FB10331380EFE704285F
:100B000004D1304B4FF461721A80CFE70528E6D14B
:100B100000230724F5E603280AD12B490B78072286
:100B20000133B3FBF2F2C2EBC2029B1A0B70EFE788
:100B300004284FF0000302D1234A1370CFE70528A1
:100B4000E6D10824DDE6052830D198F800308DF88C
:100B500028309AF800308DF829301A4B1B883C2138
:100B6000B3FBF1F201FB12338DF82B30164B8DF8ED
:100B70002A201B788DF82C3000238DF82D3095E835
:100B8000030000F071FA20B1104805F0AFFF012317
:100B9000B7E60F4805F0AAFF00F03AFB0D4800F059
:100BA0004DFB4FF4FA60FFF7A7FDF0E70428AFD044
:100BB0000023A6E63D070020C0E50000DEE50000BA
:100BC0000C0000200A0000200800002003E60000BE
:100BD00023E6000047E6000038B5054D044645F021
:100BE00001054FF47A40A847013CFAD138BD00BF57
:100BF00050050100022970B5044610D1084E335C3F
:100C00006BB101460025074805F070FF3555FFF729
:100C100027FC3220FFF7E0FF034B43F8245070BD60
:100C20008C070020D7E600008407002013B5344865
:100C300005F05CFF00F09EFB30B1324805F056FF36
:100C40000024204602B010BD2F4805F04FFF00F0F1
:100C500019FF08B92D48F1E72D4805F047FF64203A
:100C6000FFF7BAFF684600F017FF18B1294B9DF84F
:100C700003201A7000F08CFA08B92748DEE700F06C
:100C8000C7FA264805F032FF00F0A6FA18B9244842
:100C900005F02CFFFEE7234805F028FF224800F06E
:100CA000CDFA00F0FBFA08B92048C7E7204805F064
:100CB0001DFF00F067FC08B91E48BFE71E4800F0A2
:100CC0005BFC1E4805F012FF00F0B0FF08B91C489D
:100CD000B4E71C4805F00AFFFFF786FC1A4805F048
:100CE00005FFFFF793FC194805F000FFFFF772FBC3
:100CF000044608B91648A1E7164805F0F7FEA0E734
:100D000007E7000029E700004CE700005EE700006D
:100D100081E700007107002093E70000BAE70000B8
:100D2000D0E70000E9E7000007E800001DE8000048
:100D30004CE800006AE80000F50B000093E80000B2
:100D4000ABE80000D0E80000E4E80000FAE80000AA
:100D50001AE9000046E9000010B5114AC07813787E
:100D6000834217D00F4C107021780F4801310723B0
:100D7000B1FBF3F3C3EBC303C91A217005F0B6FE50
:100D80000A4B0B4A187800231C46D9B2884202F15C
:100D9000060200D810BD02F8014C0133F5E700BF90
:100DA000710700200D00002061E90000BE0800204E
:100DB000920700202DE9F04104461D4D1D481E4FAD
:100DC0000E4605F093FE1D4805F090FE35F8141010
:100DD0001B4805F08BFE4FF00008B0450FD14FF4D3
:100DE000FA60FFF7F9FE174B33F814602EB931465D
:100DF000204600F0DFFE25F81460BDE8F08135F8EC
:100E00001430952B8CBF19331E3399B2384625F810
:100E1000141005F06BFE15F81410204600F0CAFE01
:100E20004FF4FA70FFF7D8FE08F10108D5E700BFCC
:100E30007207002085E90000E3E90000A5E9000051
:100E4000CAE900008E0700202DE9F84FDFF8BCB09A
:100E5000274F80464FF0000A9BF800305FFA8AF96E
:100E60004B4501D8BDE8F88F062606FB09F6214B55
:100E7000BC191B7862789A422BD1A27898F804307A
:100E80009A4226D1E27898F805309A4221D16379C6
:100E9000FBB92279B95D184805F028FEBD5D012D2A
:100EA00017D8164A217932F815308B4214D35B1AC1
:100EB000284622F81530FFF77DFF114B01225A55C5
:100EC000104B142243F82520062303FB097301224B
:100ED0005A710AF1010ABFE729460B4805F006FEE0
:100EE00023796179B85943EA0121FFF7D1FAEBE799
:100EF000920700200D000020F4E900008E0700207A
:100F0000800700207807002028EA0000BE080020A3
:100F10002DE9F843344FDFF8F880344D00243B5D71
:100F2000E6B2A3B13248214605F0E0FD304600F0BC
:100F300065FB70B32F48214605F0D8FD012308F862
:100F400004302A4B1E2243F8242000233B5518F876
:100F50000430CBB155F82490B9F1000F39D03046A8
:100F6000FFF75AFA55F82430234A013B45F824305C
:100F700055F824305343B3F1333F05D855F82420B6
:100F80001E48611C05F0B2FD0CB1BDE8F8830124D8
:100F9000C5E71B4B53F82490B9F1000F0FD053F85D
:100FA0002420013A43F8242053F82420D207CED439
:100FB00053F824201348214605F098FDC7E7214641
:100FC000114805F093FD304607F80490FFF79CFAAE
:100FD000BDE7611C0D4805F089FD304608F8049016
:100FE000FFF742FAD0E700BF800700208407002007
:100FF00047EA000074EA0000CDCCCCCC0FEB000037
:101000007807002097EA0000D4EA000037EB0000E0
:101010008C07002070B5124AA8B004465388267980
:1010200007931388069310EE900A10EE105A0CF0F6
:10103000A7FDCDE9040128460CF0A2FDCDE902018F
:101040006379084A00938021334608A805F0CEFA58
:1010500000F0DEF808A800F0F1F828B070BD00BF7D
:101060008E07002063EB0000F7B51A4D2B786C4615
:10107000312B84E8030015D8174A9DF801009DF82C
:1010800003709DF800C0002116468B4210DC06223A
:101090005A430098B050B1180133A2888A802B704F
:1010A000012003E00D4805F021FD002003B0F0BD54
:1010B00092F801E0864509D192F803E0BE4505D1DA
:1010C00092F800E0E64501D10548ECE7013106322F
:1010D000DBE700BFBE08002092070020BCEB000049
:1010E000F8EB000038B5104C227882420CD90F4B37
:1010F00000EB400103EB4103824203F1060308D1F8
:10110000013A2270012003E0094805F0EFFC0020BD
:1011100038BD1946013051F8065943F8065C9D88E0
:101120008D80C0B2E8E700BFBE0800209207002013
:101130002AEC000098B5541CE4B2E31D03F4FC73E0
:1011400000AFADEB030D6B4603F8010B184605F03D
:1011500095FA224669463C2000F058F9BD4698BDF4
:1011600007B560F04F004FF480538DF8060003225E
:1011700001A90020ADF80430FFF7DCFF10B10348EF
:1011800005F0B4FC03B05DF804FB00BF5FEC0000A9
:1011900010B588B00D49192200240DF105008DF815
:1011A000044005F06BFA01A91A223C2000F02EF948
:1011B000014628B1064805F099FC204608B010BD4C
:1011C000044805F093FC0120F8E700BF5605010034
:1011D00088EC0000BAEC000007B5AF230DF1070161
:1011E00001223C208DF8073000F010F9014630B1A3
:1011F000054805F07BFC002003B05DF804FB0348C4
:1012000005F074FC0120F7E7E6EC000014ED0000A7
:1012100010B5A0B080220021684605F01DF9002419
:10122000E0B2FFF79DFF0134802269464020FFF7BE
:1012300081FF082CF4D120B010BD0000F8B50446A1
:1012400050B105F09DF806460020FFF789FF0C4FCE
:1012500026440025B44200D1F8BD14F8011B0A2928
:1012600007D10135EDB2072DF6D82846FFF778FFF4
:10127000F0E7082207EBC1014020FFF75BFFE9E739
:101280006F05010007B540BAADF80400022201A9BC
:10129000702000F0BBF803B05DF804FB08B543F222
:1012A0001750FFF7EFFF20B1064805F01FFC0020A4
:1012B00008BD054B4FF47A4043F0010398470120E5
:1012C000F6E700BF31ED000070090100F7B50546F3
:1012D00047F666000C46FFF7D5FF28B11E4805F01B
:1012E00005FC002003B0F0BD1C4F0F2647F001079E
:1012F0004FF47A40B847013EFAD106226946702081
:1013000000F0BEF810B1164805F0F0FBBDF8002063
:10131000DFED146A9FED147ABDF8033052BA92B231
:1013200007EE902AF8EE677A5BBA87EEA66A9BB260
:101330000120DFED0E7AE6EE077AC5ED007A07EEC2
:10134000903AF8EE677A87EEA67ADFED097A67EED3
:10135000277AC4ED007AC5E751ED0000700901005D
:101360007EED000000FF7F4700002F43000034C2E5
:101370000000C8421FB501F0EDF918B10E4A162160
:1013800000F0D8FE002001F0FDF90C4B0FCB6C46AD
:1013900084E80F001A222023CDE900234FF0CD630B
:1013A000029302238DF80C30054B2146186802F099
:1013B000F9FC04B010BD00BF9CED000090090100D5
:1013C00010000020024B1868003818BF0120704739
:1013D000100000207FB540008DF80C1003AB0021F9
:1013E0008DF8150008480493009102238DF80D2014
:1013F0008DF8143004AA012300688DF8161002F04D
:101400003DFD07B05DF804FB100000201FB5400053
:1014100002918DF80D000021064800918DF80C20F6
:10142000012302AA00688DF80E1002F027FD05B016
:101430005DF804FB1000002000B589B00DF10F032A
:101440000493012398408DF8150018438DF80F1070
:101450008DF81D000021094800918DF814308DF899
:10146000163006928DF81C3004AA022300688DF80D
:101470001E1002F003FD09B05DF804FB100000200F
:101480001FB5400040F0010002918DF80D000021D1
:10149000064800918DF80C20012302AA00688DF8FF
:1014A0000E1002F0EBFC05B05DF804FB100000200C
:1014B000024B1B6803B11847704700BFF8080020B3
:1014C000292810B504460DD9094940F2CD1001F084
:1014D00047F8084B04F01F04D3F81005E04000F073
:1014E000010010BD1F28F4D84FF0A043F4E700BF5F
:1014F000F8E1000000030050022838B5044617D177
:10150000FFF7DEFF164B1A7868B902F0FF052ABB19
:10151000012414481C7005F0E9FA21462846BDE86C
:101520003840FFF7C5BFCAB100250F481D70F2E76C
:10153000FFF7C6FF0D4B1A7840B97AB901240C4861
:101540001C7005F0D3FA21460120E8E732B10022F1
:1015500008481A7005F0CAFA0221F5E738BD00BF45
:10156000FD080020A9ED0000C6ED0000FC080020E9
:10157000E6ED000003EE0000014B1860704700BF6D
:10158000F808002007B502F0D1FD48B902F096FD39
:1015900030B1164805F0AAFA002003B05DF804FB4C
:1015A00040F20333ADF804309DF80630104A23F0C2
:1015B000070343F0020301A902208DF8063002F070
:1015C000BFFD08B10B48E5E70121022002F042FE11
:1015D000074A01A9032002F0B3FD08B10648D9E784
:1015E0000320012102F036FE0120D6E723EE0000A1
:1015F000F914000053EE000084EE000018B9034B0C
:101600001878C0B27047024BFAE700BFFD0800200F
:10161000FC08002030B50446A3B009480D4605F08B
:1016200065FA084B00951B5D074A802102A804F06B
:10163000DDFFFFF7EDFD02A8FFF700FE23B030BD90
:10164000B5EE0000D1EE0000D4EE00002DE9F0432D
:10165000414FDFF8208101240026A3B035462743FF
:10166000684600F019FA38B16846FFF7EDFB6846A6
:10167000FFF772FBFFF74CFC012D23D0022D24D085
:101680005DB9364B364A9B5D802102A804F0AEFF5F
:10169000FFF7BEFD02A8FFF7D1FDFFF725F840B127
:1016A000012D24D0022D39D01DB9032812D186F086
:1016B00001064FF032094FF47A40B847B9F10109F9
:1016C000F9D1CDE723464246DEE721463046FFF713
:1016D000A1FFE2E7042805D1224805F007FA23B06C
:1016E000BDE8F0830528E4D101242546E1E703287D
:1016F0000ED11D4B33F81630052B29D8C3F1070343
:101700000134DBB2B4FBF3F203FB1244E4B2D0E7E2
:1017100004281FD0052808BF0225CAE7052813D1D1
:101720003146124805F0E2F921463046FFF772FFD4
:101730000D4B0F4833F81620224492B2314623F85D
:10174000162005F0D3F9CAE7042808BF0125B0E741
:101750000024AEE70025ACE7A0090100D1EE0000AF
:1017600014EF000075EF00008E07002089EF0000E5
:10177000A0EF000043EF000038B5054D044645F0EA
:1017800001054FF47A40A847013CFAD138BD00BFAB
:10179000B0090100000000002DE9F04F85B0FFF70F
:1017A00045FA804618B9604805F0A0F9FEE75CA745
:1017B000D7E9006700230024DFF890A1009301938C
:1017C000A1462546FEF790FF0128834673D157486E
:1017D00005F08CF9FFF73AFF02A800F05DF9002848
:1017E00071D09DF80E309DF80D209DF80C105048DA
:1017F00005F07CF902A8FFF727FB02A8FFF7ACFA77
:10180000FFF786FBBBF1000F51D10A22B5FBF2F3C3
:1018100002FB1353DBB23BB901A96846FFF756FD43
:1018200010B9444805F062F99DF80D209AF800308F
:101830009DED000ADFF818B101359A42EDB246D0AD
:10184000DDED010A9DED000A02A8FFF7E3FBB9F107
:10185000000F0AD001343848214605F047F9B4F5A5
:10186000967F57D0354805F041F99DED000AF3EE1B
:101870000E7AB4EEE70AF1EE10FA08DCDFED307A0A
:101880009DED017AB4EEE77AF1EE10FA08DDB9F1D8
:10189000000F05D1DDED010AFEF71AFEC146002456
:1018A0009DF80D308AF80030009BCBF800303220D4
:1018B000FFF762FF86E702288ED1224805F016F96D
:1018C000FEF728FF88E7204805F010F992E7DBEDE6
:1018D000007A30EE670A0BF0E7FF10EE100A0CF00A
:1018E0004FF932463B460CF033FC0028A8D1DBED23
:1018F000007A9DED000A30EE670A0BF0D5FF10EE7E
:10190000100A0CF03DF932463B460CF021FC002851
:1019100096D19CE70024A146A7E700BFAFF3008063
:101920007B14AE47E17A843FD4EF0000FDEF000066
:101930003BF0000072F000009FF00000ADF00000EE
:101940000000704217F0000051F00000FE08002077
:10195000000900200A22B0FBF2F302FB130040EA68
:101960000310C0B27047000010B50446354805F0BA
:10197000BDF8A079FFF7EEFF002102466820FFF7CF
:1019800029FD20B1304805F0B1F8002010BD2F48E6
:1019900005F0ACF86079FFF7DDFF01210246682011
:1019A000FFF718FD08B12A48EDE72A4805F09EF830
:1019B0002079FFF7CFFF022102466820FFF70AFDDA
:1019C00008B12548DFE7254805F090F801220321FA
:1019D0006820FFF7FFFC08B12148D4E7214805F053
:1019E00085F8E078FFF7B6FF042102466820FFF78C
:1019F000F1FC08B11C48C6E71C4805F077F8A07850
:101A0000FFF7A8FF052102466820FFF7E3FC08B1B5
:101A10001748B8E7174805F069F820883030C0B299
:101A2000FFF798FF062102466820FFF7D3FC08B1B4
:101A30001148A8E7114805F059F8114805F056F883
:101A40000120A3E7C2F00000D3F00000F2F0000094
:101A500008F1000026F100003CF1000058F1000000
:101A60006CF100008FF10000A8F10000C7F1000048
:101A7000D9F10000F6F100000AF2000026F20000A1
:101A800039F2000008B50348FFF76EFFBDE80840D3
:101A9000FFF798BC1400002013B504460DF10702AF
:101AA00000216820FFF7C8FC28B13C4805F01EF86B
:101AB000002002B010BD9DF80730C3F3021202EB04
:101AC000820203F00F0303EB4203A3710DF107023F
:101AD00001216820FFF7B0FC08B13148E6E79DF826
:101AE0000730C3F3021202EB820203F00F0303EB91
:101AF000420363710DF1070202216820FFF79CFC8D
:101B000008B12848D2E79DF80730C3F3011202EB71
:101B1000820203F00F0303EB420323710DF107026E
:101B200004216820FFF788FC08B11F48BEE79DF834
:101B30000730C3F3011202EB820203F00F0303EB41
:101B40004203E3700DF1070205216820FFF774FCE2
:101B500008B11648AAE79DF80730C3F3001202EB5C
:101B6000820203F00F0303EB4203A3700DF107029F
:101B700006216820FFF760FC08B10D4896E79DF844
:101B800007301A0902EB820203F00F0303EB420352
:101B9000DBB203F5FA63238001208AE74EF20000EE
:101BA0006EF200008DF20000AAF20000C6F2000002
:101BB000E3F20000F7B540F2DA744C43B4230D466B
:101BC000B4FBF3F40646A4B210B904F5DC7403E0E8
:101BD0000128FAD104F5AA74A4B2C4F59C472037B1
:101BE000012EBFB213D0022E14D00EB90B4B1F80A2
:101BF0000B490C480223012202F040FE00972346C5
:101C00002A463146084804F071FF03B0F0BD034B8B
:101C10005F80EDE7014B9F80EAE700BF04090020E9
:101C20001C0000202C00002000F300001FB5114A0A
:101C30001068516801AB03C39068186000220E4819
:101C400001A902F043FD90B10C4804F04FFF0024BD
:101C500000210846FFF7AEFF00210120FFF7AAFF91
:101C600000210220FFF7A6FF204604B010BD01248A
:101C7000EEE700BFB60901002C00002035F300009C
:101C8000084A0023C2F80031074B1B6843B102F534
:101C9000A16292ED000A054ABAEECF0A1068184711
:101CA000704700BF00C00040100900200C09002050
:101CB00010B50368292B044604D9074940F2CD101A
:101CC00000F04EFC23681F2B83BF03F01F0323602B
:101CD00002484FF0A04010BDF8E1000000030050A2
:101CE00007B5019001A8FFF7E3FF019A0123934094
:101CF000C0F80C3503B05DF804FB07B5019001A8EE
:101D0000FFF7D6FF019A01239340C0F8083503B0CE
:101D10005DF804FB38B5054D044645F001054FF468
:101D20007A40A847013CFAD138BD00BF300A010013
:101D30002DE9F3413D4F3E4E0524022517F8013BA6
:101D4000019301A8FFF7B4FF019B03F5E07340F88E
:101D5000235001A816F8013B0193FFF7A9FF019B4F
:101D600003F5E073013C40F82350E7D1152501A8A5
:101D70000195FFF79DFF019B03F5E07340F20326F9
:101D800040F82360132401A80194FFF791FF019B01
:101D900003F5E07340F2031840F823601C2601A805
:101DA0000196FFF785FF019B03F5E0731E2740F8BE
:101DB000238001A80197FFF77BFF019B03F5E073E8
:101DC00040F823802846FFF798FF2046FFF795FF4D
:101DD0003046FFF785FF3846FFF782FF1C20FFF7EC
:101DE0007FFF1E20FFF77CFF4FF4FA70FFF792FF92
:101DF0001C20FFF782FF1E20FFF77FFF3220FFF736
:101E000089FF1C20FFF76CFF1E20FFF769FF4FF4CE
:101E1000FA70FFF77FFF1C20FFF76FFF1E20FFF710
:101E20006CFFFA20FFF776FFD8E700BF3B0A0100FE
:101E3000360A010073B506460D46144672B601F027
:101E400081FB01F0C1F90028FBD1124804F04EFEDD
:101E500044F201039E420AD044F202039E4214D18E
:101E6000228861680C4804F041FEFFF761FFA66814
:101E7000304601F089FE23680195009302466368AD
:101E80000648314604F032FEEFE72946044804F0E4
:101E90002DFEEAE758F3000071F300008CF3000018
:101EA000B6F300002DE9F743054601F04BFB01F0C6
:101EB0008BF90028FBD12A4B2A4C9E6A2A4BE41A44
:101EC000E408240444F00104002D44D0AA69274901
:101ED000204601F0E9FAEB680193AB680093D5E97D
:101EE00000232349204601F0F4FAEB690093D5E979
:101EF00004232049204601F0E0FA194BDB6A9907D8
:101F000003D51D49204601F0CBFADFF87C80DFF8CD
:101F10007C900025012707FA05F3334206D058F8D4
:101F200025201AB14946204601F0BEFA01351A2D86
:101F3000F1D1320605D50A4B10495A6B204601F003
:101F4000B3FA330405D5064B0D499A6B204601F0D0
:101F5000ABFAFFF7EDFE0B49204601F0A1FACCE702
:101F600000ED00E0CC1001007C100100D0F3000077
:101F7000E5F300001AF4000075F40000C4F400005A
:101F8000E4F4000042F40000C4090100B9F40000C8
:101F900070477047704770477047704738B50E4BB1
:101FA0001B680021986804F0A9FA4FF40041002052
:101FB00001F0B0F818B1094A142100F0BBF8084D3F
:101FC00000F0D4FF0A2445F001054FF47A40A847F9
:101FD000013CFAD138BD00BF58000020B4F9000020
:101FE000400A01007047000007B5044B0093044A03
:101FF000402300F059FF03B05DF804FB59200000B6
:102000001609002030B50F4D0FCD89B06C460FC4B6
:1020100095E80F0084E80F0006222823CDE900236D
:1020200009480A4B06930022694600F0DDFC18B10E
:10203000074A462100F07EF8064B00221A7009B0CC
:1020400030BD00BF540A01003400002000509D0044
:102050000EFA00001409002038B50E480E4C0F4D42
:10206000002323700378EB5CD2B273B1043003F029
:102070004DFF18B10A4A562100F05CF8094B1B7855
:1020800013B12378002BFCD038BD0C3003F0ECFBEF
:10209000EFE700BF3400002015090020A00A00204F
:1020A0000EFA00001409002008B50848084A037811
:1020B000D35C33B1043003F0A7FEBDE80840FFF75E
:1020C000A1BF0C3003F064FBF7E700BF3400002031
:1020D000A00A0020FFF796BF10B50848D4B20378D5
:1020E000074AD35C224623B1043003F00FFF204699
:1020F00010BD0C3003F0B8FBF9E700BF340000203E
:10210000A00A002008B50948094A0378D35C0122D7
:1021100043B1043003F074FF002814BF4FF0FF30C8
:10212000012008BD0C3003F00FFCF5E7340000205F
:10213000A00A002000B583B002900091019244F201
:10214000010071466A46FFF775FE03B000BD00004E
:10215000024B4FF43C6043F001031847800A010032
:10216000F8B51F491F4B0025C1F84051C1F8445133
:10217000C1F84851C1F84C51C1F80051C1F804519F
:102180001B684BB3D1F8044517490968641A24F059
:102190007F442F461A68A24209D8A41A15441A7C13
:1021A000DE691AB1D3E905201F749047AEB90F4A12
:1021B0000F4B11781B788B4205D10133DBB2022B18
:1021C00008BF0023137012780A4B43F822500A4BC1
:1021D0004FF48012C3F80021F8BD3346DAE700BFA0
:1021E00000100140680900206409002058090020FF
:1021F000590900205C09002000E100E02DE9F74FBB
:102200009F49A04A0B7812789F4D9A4255D00133CE
:10221000DBB2022B08BF00239C4A0B709C49166856
:1022200051F82300331823F07F43136000222B68FA
:1022300017461446944613B942B12B6006E019685C
:10224000814228D902B12B60091A19604FF0010BA5
:102250002B68DFF8509200934FF0000A002F46D011
:102260003C46FF69894B666819688A4AA368701AF8
:1022700020F07F40904200F2E1800344012020746E
:10228000286823600021C4E90111E161002840F0C1
:10229000DD802C60E2E7401A0C44D968D3F81CE0DA
:1022A000C3F800C031B1321922F07F42C3E90121E5
:1022B000DF611F4673460122BDE70027BB46C7E723
:1022C00099F802402E68431CDBB29C4208BF0023F1
:1022D00089F80030182303FB009003798468022BEF
:1022E0006AD0032B00F09480012B00F0948099F8C1
:1022F000000099F801308342E2D12B68BAF1000F57
:1023000005D1009A9A4202D1BBF1000F43D0002BB5
:1023100041D0D3F800A0604D5C4BD5F804751C6823
:10232000DFF884813E1B98F8003026F07F460336A4
:102330009BB94FF48033C5F84433C5F80433574B89
:102340004FF40032C3F880211A604FF00109C5F83C
:102350000090FFF7FDFE88F80090B2452CBF544472
:10236000A41924F07F44C5F84045D5F80435DB1B9B
:1023700023F07F43E41B033324F07F44A3420AD9B4
:10238000D5F80435C5F84035FFF7E2FE434B4FF46E
:102390000032C3F80021424B00221A7003B0BDE89E
:1023A000F08F44450BD04046D8F81C80B8F1000FA0
:1023B000F7D1002323749AE7B0463046F6E784420B
:1023C0000DD1F3692B6053B93349019001228A6022
:1023D0002E490B60324B1A70FFF7BAFE0198D8F8FD
:1023E0001C20D8F80030C26112B111680B44136090
:1023F0002B68B34218BF4FF0010ADAE73074F66970
:102400000123002EFAD1002B3FF471AF2E606EE74E
:1024100000231846F5E7267C002E7FF468AFC168DC
:1024200061600369A3604369E3608369A3611C4B36
:102430001B78002B18BF3146616013E7891B21F020
:102440007F41994234BF5B1A002317E70168994224
:1024500013D3C91A0160E0611BE79B1BCE690846D4
:102460003EB131460E68B342F7D8F61A0E600E46FA
:1024700001462360E661CC61F0E60146F2E700BF69
:10248000590900205809002068090020640900202B
:102490005C090020FEFF7F000010014000E100E029
:1024A000560900206C0900205709002072B6024A24
:1024B0001368013313607047780A0020034A1368D9
:1024C000013B136003B962B6704700BF780A002071
:1024D000EFF30583C3F308032BB9EFF31480C04374
:1024E00000F00100704701207047000008B5FFF7B9
:1024F000EFFF012803D00449432000F031F8BDE884
:102500000840FFF7D3BF00BF6EFA000008B5FFF721
:10251000DFFF012803D00449512000F021F8BDE875
:102520000840FFF7CBBF00BF6EFA00001EF0040F9B
:102530001CBFEFF309800AE0EFF308800549064A63
:10254000884201D8904202D88D464FF00000034BDC
:10255000184700000000022000E00120A51E000036
:1025600007B5ADF8000001916A46002144F202006F
:10257000FFF760FC03B05DF804FB10B5034653E8B9
:10258000000F0A4643E8002494F0000FF7D110BD75
:1025900010B5034653E8002F42EA010043E8000467
:1025A00094F0000FF6D110BD10B5034653E8000FAC
:1025B00000EA010243E8002494F0000FF6D110BDB8
:1025C00010B5034653E8002F02EB010043E8000476
:1025D00094F0000FF6D110BD10B5034653E8002F5C
:1025E000A2EB010043E8000494F0000FF6D110BD07
:1025F0000121FFF7CDBF0021FFF7D6BF10B504467C
:10260000002834D003681BB91A49FF20FFF7A8FF40
:10261000636823B917494FF48070FFF7A1FFA368DF
:1026200023B9144940F20110FFF79AFFE36823B978
:1026300010494FF48170FFF793FF238A23B90D49A6
:1026400040F20310FFF78CFFD4E9012321689B1AA5
:10265000DBB20A60013BDBB2FF2B226802D1002013
:10266000107110BD1168481C10600B70F2E70E204D
:10267000F7E700BFC3FA000038B5044620B9124995
:102680004FF49270FFF76CFF0020FFF72FFF2268D6
:10269000616813688B4215D9591E116013F8013C0B
:1026A000228AE56802FB03552268A36811685B1A59
:1026B0001179DBB2994200D213710020FFF726FF97
:1026C000284638BD0025F8E7C3FA000038B50C46A7
:1026D000054620B90E4940F24710FFF741FF24B9E3
:1026E0000B494FF4A470FFF73BFF0020FFF7FEFEFD
:1026F0002A681368591C1160EA68A41A2A8AB4FB74
:10270000F2F41C70BDE838400020FFF7FFBE00BFA8
:10271000C3FA000038B5074C051EA4F1080308BF32
:102720001C4623682BB11A6822605B6828469847CC
:10273000F7E738BD8C0A002020B9054B01225A70FA
:10274000FFF7E8BF012802D1014A9070F8E770470F
:102750007C0A002038B5094C23786BB908486360BF
:10276000A3602361E36001F0CBFB054601F0DCFBD5
:1027700001232370284638BD8525FBE77C0A00200D
:102780003927000038B51A4C237805461BB919497A
:10279000E920FFF7E5FEA37803F0FF00ABB115B128
:1027A0006B68012098470020FFF7A0FEE368013323
:1027B000E3600020FFF7AAFEE368C3B9BDE8384034
:1027C0000C4940F20510FFF7CBBEFFF78FFE25B195
:1027D000226913463BB92A602561E368002BE5D1E5
:1027E00001F0C0FBE2E79D42F7D01B68F2E738BD7D
:1027F0007C0A002013FB00001FB503788DF8003021
:102800008388ADF8043083688DF80630C3688DF88E
:102810000730036902934369054A0393054B6846F1
:1028200053F8213052F82110984705B05DF804FBA9
:10283000900A0020980A002010B50368292B04464E
:1028400004D9074940F2CD10FFF78AFE23681F2BF9
:1028500083BF03F01F03236002484FF0A04010BD68
:10286000F8E100000003005007B5019001A8FFF750
:10287000E3FF019A01239340C0F8083503B05DF8E7
:1028800004FB0000024B4FF4807043F00103184733
:10289000900A01002DE9F743154690F80080354A6B
:1028A00042F82850344A42F828304B7B06460C4602
:1028B00083B30B684FF0A04703F5E07340F20C625E
:1028C00047F823204B6803F5E0734FF0010947F800
:1028D00023200868FFF7C8FF6068FFF7C5FF23687B
:1028E00003F5E07340F20D6247F82320636803F5B7
:1028F000E07347F82320FFF7C5FF002763680193C3
:1029000001A8FFF799FF019AD0F81035D340DB07F3
:102910000CD5FFB9194A002D434608BF2A46214667
:10292000301D03B0BDE8F04302F060BA23680193A4
:1029300001A8FFF781FF019B09FA03F3C0F80C35EA
:10294000FFF7A0FF01372068FFF78EFFFFF79AFF20
:10295000092FD3D16368019301A8FFF76DFF019A96
:1029600001239340C0F80C35FFF78CFF6068FFF738
:102970007BFFCFE7980A0020900A0020F92700008B
:102980001FB503788DF800304368019383688DF894
:102990000830C368054A0393054B684653F8213055
:1029A00052F82110984705B05DF804FBA40A0020F6
:1029B000AC0A00201FB503788DF8003043680193FE
:1029C00083688DF80830C368054A0393054B684651
:1029D00053F8213052F82110984705B05DF804FBF8
:1029E000A40A0020AC0A0020F0B5194B90F800C0F2
:1029F000DFF86CE043F82C20164B16460A6943F8C2
:102A00002C200C464B7F0EF80C3007460FCC89B0BB
:102A10006D460FC594E80F0085E80F003B78CDF8B0
:102A200010C01EF803304BB1002E0B4A694608BF98
:102A30003246381D03F0EEF809B0F0BD002E074A0B
:102A4000694608BF324607F10C0002F0B5FDF3E716
:102A5000AC0A0020A40A002081290000B52900004A
:102A6000A00A002010B5044618B906493120FFF726
:102A700077FDA2682AB1636921682069984700231D
:102A8000A36010BD68FB00000EB433B5059D04467D
:102A900018B911494220FFF763FD63691BB90E495C
:102AA0004320FFF75DFD23681BB90B494420FFF766
:102AB00057FD63681BB908494520FFF751FD35B143
:102AC00006AB01AA29462046019300F071F802B036
:102AD000BDE8304003B0704768FB0000826830B446
:102AE0000468551C8560A154D0E901329A4202D392
:102AF00030BCFFF7B7BF30BC704700002DE9F84F7E
:102B00009946DDE90A431546824688460A4601276A
:102B1000AA420FD24F4538BF4F4613F0010B01D1E7
:102B200064B900240126B9F1010F1CD909F1FF395C
:102B30006E43F8E70137B2FBF5F2E9E79B0710D5E2
:102B4000B9F1000F0CBF30262026BC42EAD9013C67
:102B500031465046FFF7C2FF002CE2D0BC42F6D10E
:102B6000E0E72026F1E7B8FBF6F39D42E0D9DFF875
:102B70003C90B8FBF6F3504619F8031006FB138897
:102B8000FFF7ACFF3346AB42B6FBF5F6F1D2BBF133
:102B9000000F00D034B9BDE8F88F20215046013C29
:102BA000FFF79CFFBC42F8D8F5E700BF960A01008A
:102BB0002DE9F74F0F469046054620B9B74940F238
:102BC0005220FFF7CDFC6B6923B9B4494FF415705F
:102BD000FFF7C6FC2B6823B9B04940F25520FFF738
:102BE000BFFC6B6823B9AD4940F25620FFF7B8FC33
:102BF000002F00F0558117F8011B49B92B7B002BE2
:102C000000F04E81284603B0BDE8F04FFFF72ABF21
:102C1000252940F0BD8000263A4612F8013B2D2BB5
:102C200025D0302B27D02B2B28D000242A2B07F19E
:102C3000010226D1D8F80030191DC8F800101B6811
:102C400017461C443B782E2B27D101374FF0000A42
:102C50000A20394611F8012BA2F1300CBCF1090F02
:102C60001DD800FB0A22A2F1300A0F46F1E746F018
:102C700001061746D0E746F00206FAE746F00406DA
:102C8000F7E712F8013CA3F130010929DAD80A214B
:102C900001FB0434303C1746C8E74FF0000A3A46BF
:102CA00012F8011B01F0FB0068281746F8D07829BC
:102CB00009D86F290BD8632964D021D8252967D07A
:102CC000582900F095803B78002B94D196E7703915
:102CD0000829F8D801A252F821F000BF732E000095
:102CE000C72C0000C72C0000052E0000C72C0000D8
:102CF000DB2D0000C72C0000C72C0000F12D0000C8
:102D0000642901D06929DED1D8F80020111DC8F846
:102D10000010D2F800B08BEAEB72A2EBEB724FF02E
:102D200001090A21092A37DCD14538BFD1462CB127
:102D3000BBF1000F01DB720700D5013CB30702D5E0
:102D4000BAF1000F03D0F00701D454BB0024BBF14B
:102D5000000F32DACBF1000B2D212846FFF7BEFE23
:102D600006F00302022A04D1BAF1000F01D144BBDC
:102D70000024CDE9004653460A2259462846FFF76B
:102D8000BDFEA0E7D8F800301A1DC8F80020197859
:102D90002846FFF7A3FE96E709F10109B2FBF1F21D
:102DA000C0E7A145D3D2013C20212846FFF796FE7B
:102DB000002CCBD0A145F6D1C9E77107D0D52B2186
:102DC000CBE7A145D5D2013C30212846FFF786FE4E
:102DD000002CCDD0A145F6D1CBE7D8F800100A1DC4
:102DE000C8F80020CDE9004653460A220968C5E725
:102DF000D8F800100A1DC8F800205346CDE9004657
:102E00001022F3E7D8F800301A1DC8F8002016F099
:102E10000106D3F8009024D1B9F1000F03D0484641
:102E200003F0AEFA0646B4421DD809F1FF3919F88D
:102E3000011F00293FF447AF2846FFF74FFEF6E792
:102E400028460136FFF74AFE19F806100029F7D187
:102E5000A642BFF438AF20212846013CFFF73EFED2
:102E6000F6E70026F0E720212846013CFFF736FE72
:102E7000D9E7D8F800301A1DC8F8002030212846BC
:102E80001C68FFF72BFE78212846FFF727FE00225B
:102E90000823CDE90032214610226FE7AEFB000087
:102EA00003B0BDE8F08F00BFF0B595B01D461646E3
:102EB00008460C4600F00EFD1A9B0D93CDE90865FF
:102EC00000252B46082205A920460A958DF82C508E
:102ED0000C9500F027FD079B0293069B03939DF83A
:102EE00014308DF8115003F00302012A1DD1BDF8F2
:102EF0001420059DC3F3C203C2F383168DF810306E
:102F0000B20008230EA9204600F00CFDC5F395255C
:102F100008AB0093324602AB0EA9284600F080FBB6
:102F2000204600F0DBFC15B0F0BD022AF8D1BDF858
:102F30001650C3F3C203C5F389158DF81030082766
:102F4000082D2E4628BF08263B4632460EA92046AD
:102F500000F0E8FCAD1B08AB02AA31460EA83744CE
:102F600000F0C2FB002DEBD1DAE7000008B5FFF757
:102F7000B1F80748042100F0BBFA002803DA05493C
:102F80004820FFF7EDFA044B01225A7108BD00BF3B
:102F90000C110100FBFB000048000020037813F037
:102FA000040215D003F00303012B03D0022B09D038
:102FB000012070470B6802880233C2F38312134466
:102FC0000B60F5E70B684288023303EB9213F7E7D7
:102FD000104670472DE9F04FDFF834A10F4687B057
:102FE0000446861C00201546FFF780FADAF8002018
:102FF0003A60DAE901130B4401339B1A0AF21C47C9
:103000000AF583690AF21448B3421BD30021002D4C
:1030100077D004F00F04A40144F0050464F30F0119
:10302000DAF80020DAF808301340033332444AF863
:1030300023100020CAF80020FFF768FA012007B02B
:10304000BDE8F08F01213846FFF7BAFA4846FFF78E
:10305000CFFA4046FFF7CCFADAF80400DAF808B005
:10306000029000EA0B0003300AEB800002A9FFF790
:1030700095FF029B0246E0B90BEA03010AEB8101CE
:10308000C8680390991C013303EA0B030AEB83031E
:1030900000F003000128DB6802912AD002280BD03F
:1030A0001A49019240F28910FFF75AFA019A9346A1
:1030B0000CE00BEA0300D6E74FEA134BBDF80E30E5
:1030C000C3F38913033301EB930302934046FFF7E5
:1030D00092FA10B1029BCAF8043059463846FFF7FD
:1030E0006FFADAE901231344DAF8002001339B1A5E
:1030F0008AE74FEA134BBDF80C30C3F383130B443C
:10310000E3E7A40544F006018AE700BF6BFC00007A
:10311000B40A00200B4B0C48FF2210B59A60002225
:10312000C3F81824C3E90022C3F81424012283F849
:10313000202400F08BFB044610B9044800F0FCFC8E
:10314000204610BDB40A0020E4100100A80A0100C6
:1031500030B50A4C71B10A4A0A49121BD208002341
:103160009A4201D1002030BD31F82350854202D06F
:103170000133F5E7034654F83300F4E77C1001000F
:10318000E41001001C070020094B013903EBC000CB
:10319000032909D8DFE801F0020A0406022070477B
:1031A00000797047407970470020704704207047CD
:1031B0007C100100034BD3E90030C31A5842584138
:1031C000704700BFB40A00202DE9FF47FFF7F2FF68
:1031D000002840F083807E4DC5F81804BFF34F8F60
:1031E0006868AC6800902040033005EB80006946B9
:1031F000FFF7D4FE009B18B1D5F81824002A69D037
:1032000004EA03029F1C013305EB8202234005EB15
:103210008303D268DB68029302F00303022B01925E
:1032200000976ED1BDF806306A48C3F38918B8F12B
:10323000500FC14628BF4FF0500969F38F1309F1B1
:103240000801ADF8063000F019FB0646002800F032
:10325000A98000F03FFB00233046082201A900F0BE
:103260004BFB24EA07030133B9EB830F4FEA8300DA
:103270003FD95FFA89F9002837D004EA0701C4B2C0
:10328000A9EB040A0331A146534C05EB81015FFA17
:103290008AFA08234A46304600F02EFB34B109F181
:1032A000080352462146304600F026FB08F1030889
:1032B00007EB98070097D5F81834D5F81044002B81
:1032C0005FD0304600F00AFBFFF774FF80F001008A
:1032D000C0B204E02A689A4204D86A60002004B0B0
:1032E000BDE8F08704EA03007EE73B4904468246D6
:1032F000CFE704EA0701033108234A4605EB8101C1
:10330000D1E7012B4ED1BDF804303248C3F383110D
:10331000062928BF062161F38913023101F00F014C
:103320008900ADF8043000F0A9FA0646002839D02B
:1033300000F0D0FA0023082201A9304600F0DCFAA0
:103340000027BDF80420C2F38312BB00BA4203F188
:103350000803B0D900994A1C21400331009205EBC3
:1033600081010422304600F0C7FA0137E9E7E3683B
:103370005B7923B1236831461B6820469847E36890
:103380001C68002CF3D1304600F0A8FA2046FFF765
:10339000ADF8D5F818340BB9009B6B600020FFF72F
:1033A000B5F891E7D5F8104454B90C4B0C480D49C9
:1033B000C01AC008000440F0020000F071F883E772
:1033C000236820469B689847E3681C68ECE700BFC9
:1033D000B40A0020E4100100C00A00207C100100A3
:1033E000CC100100C2FC00002DE9F74F274E044627
:1033F0000F46914601A901221846D6F808A0984622
:10340000FFF7E8FD78B3019D0023A81C434503EBBB
:10341000000132D100211E48FFF7AFF84FEA1449EE
:1034200080F3100B1B4B1C4A9B1AB9EBD30F04D330
:103430001A494FF4D770FFF793F86B1C03EA0A039D
:10344000E40006EB830304F0380449EA0B4205EA82
:103450000A0544F00104DA60033544EA881343EABC
:10346000872346F8253096F820341BB1FFF7ACFED1
:103470000028FBD103B0BDE8F08F01EA0A0106EB9A
:10348000810159F82320CA600133BFE7B40A002044
:10349000D00E0020E41001007C1001006BFC000045
:1034A00000231A46FFF7A0BF07B50123019201AA26
:1034B000FFF79AFF03B05DF804FB1FB5CDE90123C8
:1034C000069B039301AA0323FFF78EFF05B05DF867
:1034D00004FB1FB5CDE90023069B0293079B0393D2
:1034E0006A460423FFF780FF05B05DF804FB000087
:1034F00030B51349D1F810440346002022464AB99A
:10350000DC682071D1F8104484B9C1F81034DB684C
:103510001A600AE0D2681579854201D01268EEE798
:1035200001300A28EAD14FF0FF3030BDE468DA6894
:1035300024681460D1F81024D2681360F5E700BF46
:10354000B40A002038B5084B0125D3F8104483F89D
:10355000205404B938BDE3685D71236820465B6878
:103560009847E3681C68F4E7B40A002010B5037AB2
:10357000052B0C460FD0437A23B1084A0849204650
:10358000FFF782FA07492046FFF77EFA2046BDE89A
:103590001040FFF767BA002AF8D0F3E7D7FC000025
:1035A00074E20000F9FC000073B5C38804460D46C0
:1035B00033B1144A00921449144A2846FFF764FABA
:1035C000217A05291CD0637A4BB1A088FFF7DCFD76
:1035D0000F4B104953F820202846FFF755FA227A5E
:1035E0000D4BA08853F822600021FFF7B1FD0B4975
:1035F00003463246284602B0BDE87040FFF744BAA1
:1036000002B070BDD7FC0000E4FC0000DCFC000050
:10361000B40A010074E20000D80A0100FCFC0000BA
:103620002DE9F04385B01F460C9D002395F80C90C2
:103630002B7306460C46904629463846FFF7B4FFE2
:10364000B8F1060F09D8DFE808F00412181F283374
:10365000400031462846FFF717FA0022294638462F
:10366000FFF784FF85F80C9005B0BDE8F083226871
:1036700031462846FFF708FAEFE7D4E90023314640
:103680002846FFF701FAE8E7A3680093D4E900238E
:1036900031462846FFF7F8F9DFE7E3680193A368AE
:1036A0000093D4E9002331462846FFF7EDF9D4E72B
:1036B00023690293E3680193A3680093D4E900238C
:1036C00031462846FFF7E0F9C7E7636903932369AA
:1036D0000293E3680193A3680093D4E90023314681
:1036E0002846FFF7D1F9B8E708292DE9F84F8046B9
:1036F0000E4617461C463BD8002593F80C901D73C8
:1037000019461046FFF750FFDFF88CA0DFF88CB0A9
:10371000AE422FD918F8052059462046FFF7B4F9D4
:103720000135082DF4D11949194DDFF874B0204640
:10373000FFF7AAF94FF0000A564522D918F80A20D7
:103740007E2A1CD81BF8021011F0970F08BF2E22FA
:1037500010492046FFF798F90AF1010ABAF1080F5B
:10376000EAD1012221463846FFF700FF84F80C9089
:10377000BDE8F88F51462046FFF786F9D0E72E22A4
:10378000E6E729462046FFF77FF9E5E710FD000050
:103790000EFD000012FD00000CFD000006FD000003
:1037A000290C01002DE9F74F99469DF83030009320
:1037B00088469346064618B92349B620FEF7D0FE40
:1037C000F28871794A43043A4A4505D81E49019264
:1037D000C420FEF7C5FE019ADBF80070B6F806A01B
:1037E00007EB0901914209F1040488BFA2EB090724
:1037F000B4FBFAF5CBF800700AFB154445B9AAEB07
:10380000040BBB4528BFBB462FB903B0BDE8F08F02
:103810003668013DF2E7009B043408EB05003444B0
:103820005A466BB12146A7EB0B0702F027FFBA45BA
:103830005D443668D3464FF0000428BFBB46E3E73B
:1038400001462046EFE700BF60FD0000FEF7D6BE50
:10385000F8B546790146721E0546002393422D684D
:1038600003D30024A64202D8F8BD0133F6E70F685F
:103870002846FEF72BFF01343946F3E72DE9F041E6
:10388000CD1C078A0646FEF7F7FE043F3D4404467A
:10389000B5FBF7F5D0B14FF48073EDB2C7808380EC
:1038A000013D066080460027AF4210D23046FEF749
:1038B000E3FE40B16379013363710137C8F800005A
:1038C00006608046F0E72046FFF7C2FF002420464E
:1038D000BDE8F08101210430FEF772BE10B5012170
:1038E00004460430FEF778FEC0B220B92046BDE899
:1038F0001040FFF7ADBF10BD1FB514460392002264
:10390000009203AAFFF74EFF039BA34206D004498F
:10391000F62004B0BDE81040FEF722BE04B010BD92
:1039200060FD00001FB5144603920122009203AA15
:10393000FFF738FF039BA34207D005494FF480707F
:1039400004B0BDE81040FEF70BBE04B010BD00BFD0
:1039500060FD00000268136851688B4283BF826873
:1039600001325218C81A88BFD01A704738B50C46B1
:10397000054618B904498320FEF7F2FDAB68A3425F
:103980008CBF601C002038BDB9FD000038B504466E
:1039900018B907499820FEF7E3FD236820461D6803
:1039A0005968FFF7E3FF431B5842584138BD00BF39
:1039B000B9FD00002DE9F0410D46044618B92D4926
:1039C000A320FEF7CDFD1DB92A49A420FEF7C8FDAE
:1039D0000020FEF78BFD2046FFF7D8FF074610B109
:1039E000237C002B43D1D4F800802046D8F8046013
:1039F000D8F80410FFF7BAFFC8F804002FB1276801
:103A000020463968FFF7B2FF3860E2686068531EED
:103A1000072B24D8DFE803F0041423182323231CE6
:103A20002B7883552046FFF795FF23689A688242DA
:103A30001BD300240020FEF769FD2046BDE8F0817D
:103A40002B8820F81630EDE72B6840F82630E9E7A0
:103A5000D5E9002300EBC600C0E90023E2E72946D0
:103A600006FB020002F00AFEDCE79860E1E70424AE
:103A7000E0E700BFB9FD000010B5044620B90649D3
:103A800040F22B20FEF76CFD236818685B68C31AB0
:103A90005842584110BD00BFB9FD00002DE9F0416A
:103AA0000C469046054618B92249E720FEF758FD16
:103AB0001CB92049E820FEF753FD0020FEF716FD53
:103AC0002846FFF7D9FF002832D12F683E68B8F1A9
:103AD000000F04D139682846FFF748FF3860EA68CC
:103AE0006968531E072B1DD8DFE803F0040D1C1175
:103AF0001C1C1C158B5D237000240020FEF706FDA6
:103B00002046BDE8F08131F816302380F4E751F803
:103B100026302360F0E701EBC601D1E90023C4E9B8
:103B20000023E9E706FB0211204602F0A7FDE3E7C8
:103B30000524E2E7B9FD00008268002393608268F3
:103B40001361826853618268D360826853608268BF
:103B50001360704710B50B4AA2F58C739A4201D8D6
:103B600000200CE0D11A091103EBC10453F8311005
:103B7000814205D802D204F10803EFE7606810BD66
:103B80002246EBE7040C010008B5FFF7E3FF024B08
:103B9000002808BF184608BD040C0100C0B200236D
:103BA00048700B707047000070B50D46044618B998
:103BB00008497120FEF7D4FC23681A6812683AB1EC
:103BC0001A681B6851681B682846BDE87040184792
:103BD00070BD00BF98010100F0B5044687B018B968
:103BE0002D493720FEF7BCFC21680A7E0B689E68D1
:103BF00006EBC20CD0B256F832609CF805309CF847
:103C000004704FEAC20E9CF8062012F0010F4FEA32
:103C1000530503F0010336D0002B34D1D1F800C096
:103C20009CF80CC0013060452DDA086880680EF100
:103C3000080C60444079B5EB500F24D10B68087E26
:103C40009B6803EB0C0253F80CC0537992F804E024
:103C5000927903F001030130C3F103035201C0B2B2
:103C6000DBB202F02002087601A904F10C00CDE9D4
:103C7000027ECDE9046C8DF804308DF8055001F01A
:103C8000F5F907B0F0BD52014FF0000CDBB202F0C5
:103C90002002E646E8E700BF980101002DE9F84F51
:103CA0000E46044618B927498720FEF759FC2568B7
:103CB000DFF894904FF000080020FEF717FC16B9CB
:103CC00023681B683BB9606800222946FFF7E6FEBF
:103CD00088B3C5F8008000260020FEF717FC7EB3ED
:103CE0002B681B694BBB2F1D68691022394602F0F7
:103CF0000DFCA8B104F10C0B584604F1080A01F0C0
:103D00005BF923464A4639465046FEF7C3FD18B1D3
:103D10000C49B420FEF724FC584601F003F96F610A
:103D200085F818802046FFF757FF014640B120462E
:103D3000FFF73AFFC0E70126CEE72B681F69D3E7FC
:103D4000BDE8F88F980101004D3D000038B50C46E4
:103D5000054618B91249D220FEF702FC23681B68F9
:103D60001BB90F49D820FEF7FBFB297871B92268EF
:103D7000137E10680133007BDBB2984207D91376BB
:103D80002046FFF729FF014608B938BD0321204628
:103D9000FFF70AFF20460121BDE83840FFF77EBF4C
:103DA00098010100F8B50D46044620B919494FF4B1
:103DB0008470FEF7D5FB636823B9164940F20910F9
:103DC000FEF7CEFB63689B6823B912494FF48570F8
:103DD000FEF7C6FB25B90F4940F20B10FEF7C0FBFA
:103DE0000D4A2346294604F10800FEF753FD074615
:103DF00070B904F10C0001F095F823681F6095E894
:103E00000F002668043686E80F0023681A1D5A61E1
:103E10003846F8BD980101004D3D000037B5054614
:103E2000019120B9144940F22D10FEF799FB019B36
:103E300023B911494FF49770FEF792FB019B9B68E1
:103E400023B90D4940F22F10FEF78AFB019B1B7B23
:103E500023B909494FF49870FEF782FB686801A9FD
:103E6000FFF7A8FD044618B901462846FFF716FFDC
:103E7000204603B030BD00BF980101002DE9F0419C
:103E800086B00F46DDF8308016461D46044620B940
:103E9000194940F24F10FEF763FB26B916494FF45B
:103EA000A870FEF75DFB25B9134940F25110FEF7EB
:103EB00057FB0023ADF8003001238DF8003001A935
:103EC0000E4B01932046CDF808D003968DF8105084
:103ED0000597FFF7A3FF30B106B0BDE8F081B8F158
:103EE000000F00D0C0479DF80030002BF7D19DF89F
:103EF0000100C0B2F0E700BF980101009D3B000047
:103F000010B5044618B90649A420FEF729FB054B55
:103F1000187918B901221C601A7110BD8520FCE7C0
:103F2000EC0101004010002008B50B4B1B791BB9B8
:103F30000A49BD20FEF714FB094B1A68D20704D4C6
:103F4000E02283F8002301221A604FF0804301220F
:103F5000C3F8182508BD00BF40100020EC01010087
:103F600000E100E007B50C4B1B791BB90B49EA20B7
:103F7000FEF7F6FA4FF080430022C3F80421D3F88D
:103F800004210192019A0222C3F8042301229A60BB
:103F900003B05DF804FB00BF40100020EC010100FD
:103FA00007B54FF08043D3F8002162B10020C3F879
:103FB0000001D3F800210092009A0122C3F80823DF
:103FC0000D4B1B6898474FF08043D3F8042182B112
:103FD0000022C3F80421D3F804210192019A02229D
:103FE000C3F80823044B1B68012003B05DF804EB01
:103FF000184703B05DF804FB4010002000F180403A
:1040000000F5C040002382B0036003680193019B68
:1040100002B07047C208012300F007008340885CAB
:1040200003438B5470470000054B4FF0FF320728C5
:1040300043F8202084BF1B1883F85220704700BF2C
:104040004810002010B50368292B044604D90749FD
:1040500040F2CD10FEF784FA23681F2B83BF03F0D4
:104060001F03236002484FF0A04010BDF8E100009C
:104070000003005013B5019001A80C46FFF7E2FFC2
:10408000019B00EB8300D0F8003723F44033C0F8E5
:104090000037D0F8003743EA0443C0F8003702B0D5
:1040A00010BD00004FF0A043D3F810350360024B61
:1040B000D3F81035436070470003005010B5174C1B
:1040C00094F8643043BB04F12F032A21FF22013905
:1040D00011F0FF0103F8012FF9D1C8B20131FFF748
:1040E000A3FF0C29F9D1062200210D4802F0B4F9F2
:1040F0000C4BE02283F8062340221A604FF4BE7076
:10410000FFF77CFF084B4FF00042C3F80423012364
:1041100084F86430002010BD0820FCE7481000201F
:10412000A610002000E100E000600040034B93F87F
:104130006400003818BF0120704700BF48100020FD
:1041400029282DE9F74304460F46914604D93E49F4
:1041500040F20720FEF704FADFF8F48008EB0403CE
:1041600093F93030002B6DDAB978C1F340010029A2
:104170000BBF082300230C200820834203D1042016
:1041800003B0BDE8F08358F8232001324FEA8305DD
:104190003ED108EB04025EB248F8239082F830600A
:1041A00011B9434483F85240BB78590712D4DA0757
:1041B00030D501A80194FFF745FF019B00EB830078
:1041C000D0F8003723F00203C0F800371F4920461B
:1041D000FFF720FFBB783A789B0729D505F180438C
:1041E00003F5C0432402D3F8101521F44F3121F414
:1041F0004071C3F810151204D3F8101504F47C5460
:1042000002F4403214430C43C3F810450020B7E7D2
:104210000133B2E701A897F801900194FFF712FF6C
:10422000019B03F5E0734FEA890240F82320CDE7B4
:10423000083E48FA86F696F85A3043EA821386F822
:104240005A30E3E708209BE73F020100A610002058
:10425000481000202928F7B504460D4604D92949FD
:1042600040F23720FEF77CF9274E331993F93030AE
:10427000002B04DA23494FF40E70FEF771F9371959
:1042800097F93020072A1BDD324492F852309B09FF
:10429000032B10D101A80194FFF7D4FE019BD0F8A5
:1042A0001015D94001F001010231204603B0BDE8EC
:1042B000F040FFF7DFBE012B0CBF02210321F4E722
:1042C000D3B2072B1BD8930003F1804303F5C043FF
:1042D00002F14000D3F81015800041F00101C3F84D
:1042E000101580B2FFF78AFE4DB197F9303056F8BD
:1042F000233023B101239340044AC2F8043303B0AE
:10430000F0BD00BF3F0201004810002000600040E7
:104310002DE9F04F00248BB0CDE90244604D4FF4FD
:104320008072012102F1804303F5C0431B68012B19
:1043300007D1D5F804330B4203D090B2FFF75EFEED
:104340000C430432B2F5907F4FEA4101EAD1544B5D
:10435000D3F87C31012B08D14FF4BE70FFF74EFE2D
:1043600002A844F00044FFF79DFEE3B2D3B14D4FE5
:1043700000250126344210D0AB0003F1804303F541
:10438000C043D3F81005D3F8101557F8253023B1E2
:10439000C1F30141C0F3052098470135082D4FEACC
:1043A0004606E7D1002C77DA0023CDE904334FF03D
:1043B000FF33CDE90633DFF8ECB03B4B0193002728
:1043C0003D46019B13F9014F0193631C4ED0C4F38A
:1043D000C2080122E3B204F03F0604F0070402FA27
:1043E00004F408F128020DEB020818F8102C224200
:1043F0003CD00BEB06024FEA931A92F930205BF89F
:104400002290B9F1000F07D1BAF1030F2ED104A900
:104410003046FFF7FFFD02E0BAF1030FF7D008A81E
:104420000896FFF70FFE089A18F8201C02F5E072B4
:10443000214250F82220C2F3014206D0022A15D1AF
:10444000BAF1030F0CD1514605E0032A0ED1BAF19F
:10445000030F05D102213046FFF70CFE0135EDB206
:10446000B9F1000F02D051463046C8470137042F3A
:10447000A7D18DB108A8FFF715FE029B089A9A42B2
:10448000099B02D103998B4206D002920393049AAE
:10449000059B0692079390E70BB0BDE8F08F00BF35
:1044A0000060004048100020A110002010B5054C0D
:1044B00023681BB904495120FEF752F82368BDE870
:1044C00010401847B01000209402010038B50C4687
:1044D00028B90C497720FEF743F8002038BD0A4B75
:1044E0009842FAD10020FEF701F8084B1D7915B962
:1044F00001221C601A710020FEF708F8002DECD094
:104500001120EBE79402010000200040B0100020D1
:1045100018B906499B20FEF723B8054B984201BF06
:10452000044B00221A601A71704700BF9402010008
:1045300000200040B01000200023435082B04358B8
:104540000193019B02B0704738B51D4602230B71E1
:104550000B684A7104467BB112F0040F14BF92211C
:104560008221100748BF41F02001D306236848BFCD
:1045700021F08001C3F8001320684FF48271FFF727
:10458000DBFF12F0800F206805BF01234351401963
:10459000002038BD70B5D0F8103105460C4653B137
:1045A0004FF48871FFF7C8FF63795A0703D5236872
:1045B0000BB101209847D5F814315BB14FF48A71E3
:1045C0002846FFF7B9FF63791B0703D523680BB1B2
:1045D00002209847D5F81C315BB128464FF48E7104
:1045E000FFF7AAFF607910F0100002D1236803B131
:1045F0009847D5F8043163B14FF482712846FFF72C
:104600009BFF0123237123681BB1BDE87040032089
:10461000184770BD10B50368292B044604D9074913
:1046200040F2CD10FDF79CFF23681F2B83BF03F0E2
:104630001F03236002484FF0A04010BDF8E10000C6
:10464000000300502DE9F04104460E46154622B9FC
:104650001D4940F2AB20FDF783FF2F6827B91A49A7
:104660004FF42E70FDF77CFF04EB4618C8F8207558
:10467000AF881FBB144940F2C120FDF771FFC8F895
:104680002475AF68B7F1807F04D30F4940F2CB2087
:10469000FDF766FF4FEA461804EB4616C6F8287584
:1046A000ED68B5F1807F04D307494FF43570FDF70D
:1046B00057FF4444C4F82C55BDE8F0813B04DED5D7
:1046C000014940F2C220D8E7E70201002DE9F04F8E
:1046D000044689B090460D4619B962498020FDF71D
:1046E0003FFF2779604EFB00019306EBC7031B7960
:1046F000002B40F0B48046F8378005F1FF390DF10A
:10470000100805F1030A19F8012FFF2A00F0A28012
:1047100022F0800B1306C8F800B0CDF80CB003A847
:1047200040F19080FFF776FF039901228A40C0F89C
:10473000082503A8CDF80CB0FFF76CFF039B03F529
:10474000E073032240F82320D14508F10408DAD1B0
:104750002368049AC3F86025059AC3F86425069A6D
:10476000C3F86825079AC3F86C2523680122C3F8AB
:104770000025B5F90830D4F8008095F805B095F813
:1047800006A0B5F80890002B04DA38494FF42870D9
:10479000FDF7E6FEC8F80CB5C8F804A5C8F80895FA
:1047A00023686A89C3F8102522680023C2F8003202
:1047B0002268C2F8003320684FF48E71FFF7BCFE08
:1047C00020684FF48871FFF7B7FE20684FF48A71B4
:1047D000FFF7B2FE20684FF48271FFF7ADFE56F886
:1047E00037303BB32D792768072D47F3073703D9B7
:1047F0001F496B20FDF7B4FE002FB6BF1D4B07F11C
:10480000604707F00F074FEA4515EDB2AABF07F55D
:104810006147DD5587F80053236843F30733002BC6
:1048200008DB0122590903F01F0302FA03F3124ABD
:1048300042F82130019B1E4401233371002009B04E
:10484000BDE8F08FFFF7E6FE039901228A40C0F829
:104850000C256EE74FF0FF33C8F8003074E70820EE
:10486000EDE700BF29030100B8100020E7020100B6
:104870007403010014ED00E000E100E02DE9F041D7
:1048800015461E460279244B03EBC208044698F8ED
:1048900004300F4623B921494FF48D70FDF760FEB7
:1048A00025B91E4940F21B10FDF75AFE3B6803F084
:1048B0006043B3F1005F04D018494FF48E70FDF7E8
:1048C0004FFE20683A460021FFF7BCFE3A462068BA
:1048D0000121FFF7B7FE226805F0010303EB550540
:1048E000C2F81455F20715D416F0020203D0002BBB
:1048F0000CBF042208222168002BC1F800222046A8
:10490000F2B2414608BF0823BDE8F04118BF0C23AE
:10491000FFF71ABE1022EEE7B810002029030100AD
:1049200001490248FFF736BEB810002000C0014020
:1049300001490248FFF72EBEC010002000100240BF
:1049400000F1804000F5E040002382B0036003687E
:104950000193019B02B07047F0B5544B544CD3F80F
:10496000043194F82E2085B0002B3BD04FF4827098
:10497000FFF7E6FF2AB394F82F3013BB4B4AD2F867
:104980000031002B32D04FF48070FFF7D9FF638BDA
:1049900094F82D00834250D921891B1A9BB289B209
:1049A0006383CB1A616801EB4301C2F82C16C2F88D
:1049B00030064FF48270FFF7C3FF3C4B01225A6070
:1049C00014E0636802932389ADF80C30E36800219A
:1049D0008DF8041033BB2374236801A89847002383
:1049E00084F82F3094F82E30002BC7D12F4BD3F8FA
:1049F00010315BB14FF48870FFF7A2FF00232374DE
:104A000002238DF8043001A823689847274BD3F878
:104A100014310BB34FF48A70FFF792FF0023237415
:104A200005B0F0BD208B608363602081E160002AC7
:104A3000D2D11E4B01221A60CEE7BAD1E168012023
:104A400084F82F0031B100206083C2F82C16C2F820
:104A50003036AEE76183ACE766694FF00047012569
:104A6000002EDDD0B6FA86F227FA02F34632920023
:104A700026EA030602F1804303F5E0431B68002B9E
:104A8000EED01046A2F58C72FFF75AFFD30882F0E1
:104A90000402C2F380028DF808308DF804502368B8
:104AA0008DF8092001A89847DAE700BF00700040A0
:104AB000C810002010B50368292B044604D9074903
:104AC00040F2CD10FDF74CFD23681F2B83BF03F090
:104AD0001F03236002484FF0A04010BDF8E1000022
:104AE0000003005007B5019001A8FFF7E3FF019A0A
:104AF00001239340C0F80C3503B05DF804FB07B503
:104B0000019001A8FFF7D6FF019A01239340C0F856
:104B1000083503B05DF804FB13B5144BD3F8182126
:104B200012B30022C3F81821D3F81831104C0193A6
:104B3000019B236823B90F494FF42770FDF710FD3F
:104B4000E07FFF2803D0A37F5BB1FFF7CBFF0023FB
:104B500063772372D4E90031074802B0BDE8104002
:104B60001847FFF7CCFFF2E702B010BD003002405B
:104B7000F8100020C2030100001100202DE9F743C6
:104B8000002406460F4600F5A0754FF48038A14674
:104B90002B688BB1D6F8043308FA04F21A420BD012
:104BA000C5F800902B680193019BA30003F5A07347
:104BB00098B2D7E9003198470134042C05F1040577
:104BC000E6D103B0BDE8F08301490248FFF7D6BF44
:104BD0001C1100200080004001490248FFF7CEBFB1
:104BE00028110020009000400023435082B0435819
:104BF0000193019B02B070470A7B0346032A2CD81D
:104C0000DFE802F024281C028868154A904204D18B
:104C1000D3F84C250869904209D1886840F20222F5
:104C200090421AD1D3F84C254969914215D0002001
:104C30000622C3F80005C3F800257047D3F84C25B9
:104C400008699042F3D1D3F83C25EDE7D3F84C2521
:104C50000969EAE7D3F83C25FAE70120704700BF6D
:104C60000002040010B50368292B044604D9074943
:104C700040F2CD10FDF774FC23681F2B83BF03F0B7
:104C80001F03236002484FF0A04010BDF8E1000070
:104C900000030050F0B50B6887B005460C4623B9F9
:104CA000484940F28620FDF75BFCD5F82431B3B1CA
:104CB0004FF492712846FFF797FFD5F8043173B986
:104CC000A368C5F808330223A360A368C5F80433BA
:104CD00001232B626B6184F82E3007B0F0BDD5F84C
:104CE00004316BB34FF48271284604F10C07FFF7CF
:104CF0007BFF0FCF01AE0FC63B68336094F82E30B8
:104D00003BB921462846FFF777FF80F0010084F881
:104D10002E004FF4B0712846FFF766FF4FF4AE71D6
:104D2000FFF762FF94F8303013B194F82E30CBB116
:104D30000023C5F80032A360234BC5F8083311E007
:104D40004FF4A4712846FFF74FFF237B1BBB04F1F0
:104D50000C070FCF01AE0FC63B68336094F83030BC
:104D6000002BE6D0D5F8C434C5F8C4349A0724D44F
:104D700013F0050F23D194F82E309B00DBB28DF891
:104D8000003094F830300BB984F82F30D4E900317A
:104D900068469847A1E74FF40073C5F8003240F227
:104DA0000223A36003F1CE73C5F80833A368C5F8E6
:104DB00004330123AB602B628FE70123DFE702237B
:104DC000DDE700BF1904010002029C01014902480D
:104DD000FFF760BF341100200030004002494FF05F
:104DE0004020FFF757BF00BF681100202DE9F04FAA
:104DF00085B00646934601930C4619B94349E22013
:104E0000FDF7AEFBD4E900239A4203D13F49E320EA
:104E1000FDF7A6FB96F804803D4F342303FB08FA08
:104E200007EB0A0595F82D20002A69D1394A306828
:104E300052F82810FFF74AFB8146002863D1019BF6
:104E400047F80AB06B60A86085F8300085F82F003D
:104E5000627B85F832202268039203A8FFF702FFE5
:104E6000039A02F5E07240F20C6540F8225003A864
:104E700062680392FFF7F6FE039A57F80A3002F5CC
:104E8000E07240F82250D4E900103268C2F80815E8
:104E9000C2F80C05A168C2F824153BB3247B356821
:104EA000072C45F3073503D91B496B20FDF758FB49
:104EB000002DB6BF194B05F1604505F00F054FEA0F
:104EC0004414E4B2AABF05F561455C5585F800437A
:104ED000336843F30733002B08DB0122590903F041
:104EE0001F0302FA03F30E4A42F82130342303FB76
:104EF0000877012387F82D30484605B0BDE8F08FCC
:104F00004FF00809F8E74FF01109F5E7190401001F
:104F100034110020180C01007403010014ED00E0AE
:104F200000E100E070B50D4C0679342303FB064325
:104F3000054693F82D30012B04D009494FF4A57094
:104F4000FDF70EFB2B680622C3F80025342303FB74
:104F50000644022384F82D3070BD00BF34110020B8
:104F60001904010070B5114C0679342303FB064384
:104F7000054693F82D3023B90D4940F25510FDF741
:104F8000EFFA34222B6802FB06440021094AA16093
:104F9000C3F80823D3F8002222F4BC52C3F800223D
:104FA000C3F80015012384F82D3070BD34110020A2
:104FB0001904010002029C01F7B5294D067934233A
:104FC00003FB0653044693F82D3023B9254940F2DC
:104FD0003110FDF7C5FA34237343EB5893B12368BE
:104FE00043F30733002B0DDB5A09012103F01F03A4
:104FF000994002F120031C4A42F82310BFF34F8F5F
:10500000BFF36F8F2046FFF7ADFF2068FFF780FAF0
:10501000342303FB065393F83230C3B9236801A845
:10502000D3F808350193FFF71DFE019B03F5E073EC
:10503000022740F82370236801A8D3F80C350193A8
:10504000FFF710FE019B03F5E07340F82370342353
:1050500003FB0655002385F82D3003B0F0BD00BFDB
:10506000341100201904010000E100E02DE9F843AB
:105070000379012B04460D46174607D84B68B3F554
:10508000803F03D28B68B3F5803F04D3BB4940F225
:105090002F20FDF765FA94F80490DFF8EC823426AF
:1050A00006FB09F658F80630A3B92B78022B08D076
:1050B0002B78032B0ED1B1494FF40E70FDF750FA47
:1050C00008E0AE4940F23720FDF74AFA58F80630BA
:1050D000002BEDD0342606FB09860023246886F8D1
:1050E0002E30EB6803F06043B3F1005F03D010266D
:1050F0003046BDE8F883A24BC4F8083396F82F3049
:1051000023B1B368C4F804331126F1E717F0140F84
:105110000CBF0123002386F82F30AE46BEE80F00F7
:1051200006F10C0CACE80F00DEF80030CCF80030D3
:10513000C7F3001386F830306B78C4F888354FF425
:1051400082712046FFF750FD4FF49271FFF74CFD3E
:1051500017F0010318BF0123C4F8503517F00203FC
:1051600018BF0123C4F840352B78032B00F2C88008
:10517000DFE803F08AB06B02FE0604D57F4940F2F7
:10518000AB10FDF7EDF9380704D57C494FF4D67024
:10519000FDF7E6F9790704D5784940F2AD10FDF73F
:1051A000DFF92B6903F06043B3F1005F9FD14FF447
:1051B0008073C4F800326B68EA68C4F8442520465E
:1051C000C4F848354FF4A871FFF70EFD4FF4B071E5
:1051D000FFF70AFD4FF4A471FFF706FD01232362D8
:1051E000A360D4F85031002BFBD04FF4A8712046B7
:1051F000FFF7FAFCAB682A69C4F84425C4F84835BF
:10520000342303FB09835F4A9A604FF482710823B9
:1052100000263A0704D42A78032A1CBF0122E25050
:10522000342303FB09F308EB030258F80330002B87
:1052300078D07B0744BF4FF400739360342303FBA3
:1052400009839B68C4F8043352E76B68EA68C4F8C2
:105250004425C4F848352B6903F06042B2F1005F81
:105260007FF445AFAA68C4F834354FF48453C4F8CA
:105270003825C4F80032342303FB098340F20222AC
:105280009A6001232362C0E76B68EA68C4F844258A
:1052900017F0200FC4F848354FF034030ED04FF408
:1052A000807203FB0983C4F800224FF4A471354ACD
:1052B0009A60FFF799FC01232362A8E74FF400727C
:1052C00003FB0983C4F8002240F202229A604FF4E3
:1052D0008271F0E76B68EA68C4F83425C4F83835A1
:1052E0004FF48053C4F80032342303FB098340F2A7
:1052F00002229A60012323624FF48271002387E720
:105300004FF482710823072683E7D4F8243153B180
:105310004FF492712046FFF767FC012323624FF49C
:105320008271636121440B68002BEED03421D4F8E4
:10533000C434C4F8C43401FB0982002082F82F0071
:1053400093B113F0010F14BF4FF40246032648F245
:10535000012213F0020F18BF164613F0040F48F293
:10536000022318BF1E46C3E609FB01812046FFF752
:1053700043FC002808BF0326BAE600BF1904010059
:1053800002029C010002040034110020002343505B
:1053900082B043580193019B02B070470A4610B592
:1053A0004FF48E71FFF7F2FF136A9168C95C136ABC
:1053B00001331362C0F81C1510BD08B502464FF446
:1053C00092710068FFF7E2FF10684FF48471FFF7F5
:1053D000DDFF136801221A6008BD000010B50368E4
:1053E000292B044604D9074940F2CD10FDF7B8F83F
:1053F00023681F2B83BF03F01F03236002484FF075
:10540000A04010BDF8E100000003005007B5019076
:1054100001A8FFF7E3FF019B03F5E073022240F8C8
:10542000232003B05DF804FB10B58B690A464FF4E6
:10543000847123B9FFF7AAFFD0F8183510BDFFF724
:10544000A5FF536AD168D0F81805C854536A0133D0
:105450005362F3E71FB501238DF80030044BCDE90B
:105460000110D3E900126846904705B05DF804FBCF
:105470009C11002030B54E4DD5F804339A0585B007
:1054800051D5D5F82431002B4DD04FF492712846D8
:10549000FFF77CFF4FF40173C5F80833454B93F8D1
:1054A00029200AB901226A60414902228DF80020B0
:1054B000D1F88024C1F8802403929A690292DA68B4
:1054C00001920022C3E906226846D3E90012904700
:1054D0003748D0F81C315BB1364A5169136A99429A
:1054E0004ED992F82830002B4AD11146FFF756FFCB
:1054F0002F48D0F84431002B57D04FF4A271FFF75A
:1055000045FF2C4B93F829200AB1012202609A69C9
:10551000002A4AD0586AD96800229A6105B0BDE8CD
:105520003040FFF797BFD5F804335B07D0D5D5F8E7
:105530000831002BCCD01F4C1D482146FFF774FFCB
:10554000636AA2699A42C3D1E36953B1A361236933
:10555000E168E3600023606AE3616362FFF77AFF5A
:10556000B6E794F829300BB901236B60104B4FF468
:105570000172C3F808230023606AE168A361EDE7C4
:105580000B484FF48E71FFF701FF5369002BAFD02A
:1055900051690291002391688DF8003001915361A7
:1055A0006846D2E900139847A2E705B030BD00BFB6
:1055B000002000409C1100202DE9F743054691464C
:1055C0000C4619B96B49AA20FCF7CAFF95F804806C
:1055D000694E2C2303FB086393F82A30002B40F01C
:1055E000C48066492868FEF771FF0746002840F02E
:1055F000BE8023685A1C13D001A80193FFF7EEFE6A
:10560000019A01239340C0F808352368019301A84B
:10561000FFF7E4FE019B03F5E073032240F823202B
:105620006368581C09D001A80193FFF7D7FE019BBE
:1056300003F5E073002240F823202B68A269C3F829
:105640002425217D637D2A680B43C2F86C35D4E99B
:1056500000122B68C3F81425C3F80C15237D012B09
:105660002AD1A368591C09D001A80193FFF7B6FEFF
:10567000019B03F5E073002240F82320E3685A1CE5
:1056800013D001A80193FFF7A9FE019A01239340CB
:10569000C0F80835E368019301A8FFF79FFE019B5E
:1056A00003F5E073032240F82320D4E902122B68AB
:1056B000C3F80825C3F810152C2303FB08F3F218D0
:1056C000C2F804902269F250B9F1000F39D028686D
:1056D00094F81C902A4A4FF48E71FFF757FE286801
:1056E0004FF4A271FFF752FE2B68C3F804232C6815
:1056F000B9F1070F44F3073403D922496B20FCF7B3
:105700002FFF002CB6BF204B04F1604404F00F04BF
:105710004FEA49195FFA89F9AABF04F5614403F811
:10572000049084F800932B6843F30733002B08DBC5
:105730000122590903F01F0302FA03F3134A42F846
:1057400021302B680422C3F800252C2303FB0866B4
:105750000023C6E9063386F829307361012386F8F1
:105760002A30384603B0BDE8F0830827F9E711274F
:10577000F7E700BF6A0401009C1100207554000087
:10578000800002007403010014ED00E000E100E07D
:105790002DE9F843036806792A4D0022C3F8002555
:1057A0002C2303FB065304465B68B3B10368264A07
:1057B000C3F80823036843F30733002B0DDB5A09B2
:1057C000012103F01F03994002F120031F4A42F810
:1057D0002310BFF34F8FBFF36F8F23684FF0FF325B
:1057E000D3F80C05D3F81495D3F80875D3F81085C1
:1057F000C3F81425C3F80C2523689042C3F8082584
:10580000C3F8102501D0FFF701FEB9F1FF3F02D028
:105810004846FFF7FBFDB8F1FF3F02D04046FFF7D7
:10582000F5FD7B1C02D03846FFF7F0FD2068FEF73F
:105830006FFE2C2303FB0655002385F82A306B608E
:10584000BDE8F8839C1100208402020000E100E022
:105850000279044B2C2101FB02335869003818BF30
:10586000012070479C1100202DE9F84FDFF8D4800B
:1058700007792C2303FB0783064693F82A30012B74
:105880008946924604D02E494FF48C70FCF768FE8E
:10589000B9F1000F04D12A4940F21910FCF760FE5B
:1058A000BAF1000F04D126494FF48D70FCF758FE71
:1058B0003046FFF7CDFF044600283CD12C2507FBDE
:1058C000058B4FF48E71CBF814A0CBF80890CBF871
:1058D00020008BF828003068FFF758FD336801225C
:1058E0009A6030685946FFF759FDDBF804305D4691
:1058F0001BBB3068DBF814402B6A9C4211D833681C
:10590000D3F81C21002AFBD00122DA6000202C23CE
:1059100003FB078300225A61BDE8F88F95F8283011
:105920003BB9D0F81C31002BF8D05946FFF736FDB3
:10593000E2E70F20EBE71120EEE72046ECE700BF9F
:105940006A0401009C1100202DE9F843464C0679B9
:105950002C2303FB0643054693F82A30012B884687
:10596000174604D041494FF4B670FCF7F9FDB8F181
:10597000000F04D13D4940F26D10FCF7F1FD27B94D
:105980003A494FF4B770FCF7EBFD2C2303FB0643B9
:10599000596821B12B684FF40172C3F808232C23F6
:1059A00003FB06439A6952B1DA69002A3FD021B15C
:1059B0002B684FF40172C3F80423112035E09F6176
:1059C000C3F80C805A6217462C2303FB0643DF61A1
:1059D00093F829301BB912B92846FFF7EEFC2C27A3
:1059E00007FB06482868D8F80430A3BB4FF4A2711F
:1059F0004746FFF7CBFC2868D0F82421D0F80811DF
:105A0000D0F84431194316D1002AF4D000232C21B8
:105A100001FB06440021A16112BB1BBB94F82910B5
:105A20002B680122A9B11A600020BDE8F883C3F8F1
:105A300010800122C8E753EA0209E8D13946FFF78E
:105A4000F3FCD8F82430D8F818209A42D3D84A4624
:105A5000DCE75A60E8E74FF40173C0F80433E3E78A
:105A60000320E2E70F20E0E79C1100206A04010018
:105A70000023435082B043580193019B02B070470A
:105A80001FB50123CDE901218DF80030D0E90013C5
:105A90006846984705B05DF804FB000010B5036840
:105AA000292B044604D9074940F2CD10FCF758FDD4
:105AB00023681F2B83BF03F01F03236002484FF0AE
:105AC000A04010BDF8E100000003005007B50190B0
:105AD00001A8FFF7E3FF019B03F5E073022240F802
